{
  "contractName": "CarbonCreditToken",
  "abi": [
    {
      "inputs": [],
      "stateMutability": "nonpayable",
      "type": "constructor"
    },
    {
      "anonymous": false,
      "inputs": [
        {
          "indexed": true,
          "internalType": "address",
          "name": "owner",
          "type": "address"
        },
        {
          "indexed": true,
          "internalType": "address",
          "name": "approved",
          "type": "address"
        },
        {
          "indexed": true,
          "internalType": "uint256",
          "name": "tokenId",
          "type": "uint256"
        }
      ],
      "name": "Approval",
      "type": "event"
    },
    {
      "anonymous": false,
      "inputs": [
        {
          "indexed": true,
          "internalType": "address",
          "name": "owner",
          "type": "address"
        },
        {
          "indexed": true,
          "internalType": "address",
          "name": "operator",
          "type": "address"
        },
        {
          "indexed": false,
          "internalType": "bool",
          "name": "approved",
          "type": "bool"
        }
      ],
      "name": "ApprovalForAll",
      "type": "event"
    },
    {
      "anonymous": false,
      "inputs": [
        {
          "indexed": true,
          "internalType": "uint256",
          "name": "tokenId",
          "type": "uint256"
        },
        {
          "indexed": true,
          "internalType": "address",
          "name": "company",
          "type": "address"
        },
        {
          "indexed": false,
          "internalType": "uint256",
          "name": "amount",
          "type": "uint256"
        },
        {
          "indexed": false,
          "internalType": "string",
          "name": "source",
          "type": "string"
        },
        {
          "indexed": false,
          "internalType": "uint256",
          "name": "emissionData",
          "type": "uint256"
        }
      ],
      "name": "CreditMinted",
      "type": "event"
    },
    {
      "anonymous": false,
      "inputs": [
        {
          "indexed": true,
          "internalType": "address",
          "name": "company",
          "type": "address"
        },
        {
          "indexed": true,
          "internalType": "uint256",
          "name": "tokenId",
          "type": "uint256"
        },
        {
          "indexed": false,
          "internalType": "uint256",
          "name": "amount",
          "type": "uint256"
        }
      ],
      "name": "CreditOffset",
      "type": "event"
    },
    {
      "anonymous": false,
      "inputs": [
        {
          "indexed": true,
          "internalType": "address",
          "name": "company",
          "type": "address"
        },
        {
          "indexed": false,
          "internalType": "uint256",
          "name": "emissionAmount",
          "type": "uint256"
        },
        {
          "indexed": false,
          "internalType": "uint256",
          "name": "timestamp",
          "type": "uint256"
        }
      ],
      "name": "EmissionRecorded",
      "type": "event"
    },
    {
      "anonymous": false,
      "inputs": [
        {
          "indexed": true,
          "internalType": "address",
          "name": "from",
          "type": "address"
        },
        {
          "indexed": true,
          "internalType": "address",
          "name": "to",
          "type": "address"
        },
        {
          "indexed": true,
          "internalType": "uint256",
          "name": "tokenId",
          "type": "uint256"
        }
      ],
      "name": "Transfer",
      "type": "event"
    },
    {
      "inputs": [
        {
          "internalType": "address",
          "name": "to",
          "type": "address"
        },
        {
          "internalType": "uint256",
          "name": "tokenId",
          "type": "uint256"
        }
      ],
      "name": "approve",
      "outputs": [],
      "stateMutability": "nonpayable",
      "type": "function"
    },
    {
      "inputs": [
        {
          "internalType": "address",
          "name": "owner",
          "type": "address"
        }
      ],
      "name": "balanceOf",
      "outputs": [
        {
          "internalType": "uint256",
          "name": "",
          "type": "uint256"
        }
      ],
      "stateMutability": "view",
      "type": "function",
      "constant": true
    },
    {
      "inputs": [
        {
          "internalType": "uint256",
          "name": "",
          "type": "uint256"
        }
      ],
      "name": "carbonCredits",
      "outputs": [
        {
          "internalType": "uint256",
          "name": "amount",
          "type": "uint256"
        },
        {
          "internalType": "string",
          "name": "source",
          "type": "string"
        },
        {
          "internalType": "uint256",
          "name": "timestamp",
          "type": "uint256"
        },
        {
          "internalType": "uint256",
          "name": "emissionData",
          "type": "uint256"
        },
        {
          "internalType": "bool",
          "name": "isActive",
          "type": "bool"
        }
      ],
      "stateMutability": "view",
      "type": "function",
      "constant": true
    },
    {
      "inputs": [
        {
          "internalType": "address",
          "name": "",
          "type": "address"
        }
      ],
      "name": "companyEmissions",
      "outputs": [
        {
          "internalType": "uint256",
          "name": "",
          "type": "uint256"
        }
      ],
      "stateMutability": "view",
      "type": "function",
      "constant": true
    },
    {
      "inputs": [
        {
          "internalType": "address",
          "name": "",
          "type": "address"
        },
        {
          "internalType": "uint256",
          "name": "",
          "type": "uint256"
        }
      ],
      "name": "companyTokens",
      "outputs": [
        {
          "internalType": "uint256",
          "name": "",
          "type": "uint256"
        }
      ],
      "stateMutability": "view",
      "type": "function",
      "constant": true
    },
    {
      "inputs": [
        {
          "internalType": "uint256",
          "name": "tokenId",
          "type": "uint256"
        }
      ],
      "name": "getApproved",
      "outputs": [
        {
          "internalType": "address",
          "name": "",
          "type": "address"
        }
      ],
      "stateMutability": "view",
      "type": "function",
      "constant": true
    },
    {
      "inputs": [
        {
          "internalType": "address",
          "name": "owner",
          "type": "address"
        },
        {
          "internalType": "address",
          "name": "operator",
          "type": "address"
        }
      ],
      "name": "isApprovedForAll",
      "outputs": [
        {
          "internalType": "bool",
          "name": "",
          "type": "bool"
        }
      ],
      "stateMutability": "view",
      "type": "function",
      "constant": true
    },
    {
      "inputs": [],
      "name": "name",
      "outputs": [
        {
          "internalType": "string",
          "name": "",
          "type": "string"
        }
      ],
      "stateMutability": "view",
      "type": "function",
      "constant": true
    },
    {
      "inputs": [
        {
          "internalType": "uint256",
          "name": "tokenId",
          "type": "uint256"
        }
      ],
      "name": "ownerOf",
      "outputs": [
        {
          "internalType": "address",
          "name": "",
          "type": "address"
        }
      ],
      "stateMutability": "view",
      "type": "function",
      "constant": true
    },
    {
      "inputs": [
        {
          "internalType": "address",
          "name": "from",
          "type": "address"
        },
        {
          "internalType": "address",
          "name": "to",
          "type": "address"
        },
        {
          "internalType": "uint256",
          "name": "tokenId",
          "type": "uint256"
        }
      ],
      "name": "safeTransferFrom",
      "outputs": [],
      "stateMutability": "nonpayable",
      "type": "function"
    },
    {
      "inputs": [
        {
          "internalType": "address",
          "name": "from",
          "type": "address"
        },
        {
          "internalType": "address",
          "name": "to",
          "type": "address"
        },
        {
          "internalType": "uint256",
          "name": "tokenId",
          "type": "uint256"
        },
        {
          "internalType": "bytes",
          "name": "data",
          "type": "bytes"
        }
      ],
      "name": "safeTransferFrom",
      "outputs": [],
      "stateMutability": "nonpayable",
      "type": "function"
    },
    {
      "inputs": [
        {
          "internalType": "address",
          "name": "operator",
          "type": "address"
        },
        {
          "internalType": "bool",
          "name": "approved",
          "type": "bool"
        }
      ],
      "name": "setApprovalForAll",
      "outputs": [],
      "stateMutability": "nonpayable",
      "type": "function"
    },
    {
      "inputs": [],
      "name": "symbol",
      "outputs": [
        {
          "internalType": "string",
          "name": "",
          "type": "string"
        }
      ],
      "stateMutability": "view",
      "type": "function",
      "constant": true
    },
    {
      "inputs": [
        {
          "internalType": "address",
          "name": "from",
          "type": "address"
        },
        {
          "internalType": "address",
          "name": "to",
          "type": "address"
        },
        {
          "internalType": "uint256",
          "name": "tokenId",
          "type": "uint256"
        }
      ],
      "name": "transferFrom",
      "outputs": [],
      "stateMutability": "nonpayable",
      "type": "function"
    },
    {
      "inputs": [
        {
          "internalType": "uint256",
          "name": "emissionAmount",
          "type": "uint256"
        }
      ],
      "name": "recordEmission",
      "outputs": [],
      "stateMutability": "nonpayable",
      "type": "function"
    },
    {
      "inputs": [
        {
          "internalType": "uint256",
          "name": "tokenId",
          "type": "uint256"
        }
      ],
      "name": "tokenExists",
      "outputs": [
        {
          "internalType": "bool",
          "name": "",
          "type": "bool"
        }
      ],
      "stateMutability": "view",
      "type": "function",
      "constant": true
    },
    {
      "inputs": [
        {
          "internalType": "uint256",
          "name": "amount",
          "type": "uint256"
        },
        {
          "internalType": "string",
          "name": "source",
          "type": "string"
        },
        {
          "internalType": "uint256",
          "name": "emissionData",
          "type": "uint256"
        }
      ],
      "name": "mintCredit",
      "outputs": [
        {
          "internalType": "uint256",
          "name": "",
          "type": "uint256"
        }
      ],
      "stateMutability": "nonpayable",
      "type": "function"
    },
    {
      "inputs": [
        {
          "internalType": "uint256",
          "name": "tokenId",
          "type": "uint256"
        }
      ],
      "name": "offsetEmissions",
      "outputs": [],
      "stateMutability": "nonpayable",
      "type": "function"
    },
    {
      "inputs": [
        {
          "internalType": "address",
          "name": "company",
          "type": "address"
        }
      ],
      "name": "getCompanyTokens",
      "outputs": [
        {
          "internalType": "uint256[]",
          "name": "",
          "type": "uint256[]"
        }
      ],
      "stateMutability": "view",
      "type": "function",
      "constant": true
    },
    {
      "inputs": [
        {
          "internalType": "uint256",
          "name": "tokenId",
          "type": "uint256"
        }
      ],
      "name": "getCreditDetails",
      "outputs": [
        {
          "internalType": "uint256",
          "name": "amount",
          "type": "uint256"
        },
        {
          "internalType": "string",
          "name": "source",
          "type": "string"
        },
        {
          "internalType": "uint256",
          "name": "timestamp",
          "type": "uint256"
        },
        {
          "internalType": "uint256",
          "name": "emissionData",
          "type": "uint256"
        },
        {
          "internalType": "bool",
          "name": "isActive",
          "type": "bool"
        }
      ],
      "stateMutability": "view",
      "type": "function",
      "constant": true
    },
    {
      "inputs": [
        {
          "internalType": "address",
          "name": "company",
          "type": "address"
        }
      ],
      "name": "getEmissions",
      "outputs": [
        {
          "internalType": "uint256",
          "name": "",
          "type": "uint256"
        }
      ],
      "stateMutability": "view",
      "type": "function",
      "constant": true
    },
    {
      "inputs": [
        {
          "internalType": "uint256",
          "name": "tokenId",
          "type": "uint256"
        },
        {
          "internalType": "string",
          "name": "_tokenURI",
          "type": "string"
        }
      ],
      "name": "setTokenURI",
      "outputs": [],
      "stateMutability": "nonpayable",
      "type": "function"
    },
    {
      "inputs": [
        {
          "internalType": "uint256",
          "name": "tokenId",
          "type": "uint256"
        }
      ],
      "name": "tokenURI",
      "outputs": [
        {
          "internalType": "string",
          "name": "",
          "type": "string"
        }
      ],
      "stateMutability": "view",
      "type": "function",
      "constant": true
    },
    {
      "inputs": [
        {
          "internalType": "bytes4",
          "name": "interfaceId",
          "type": "bytes4"
        }
      ],
      "name": "supportsInterface",
      "outputs": [
        {
          "internalType": "bool",
          "name": "",
          "type": "bool"
        }
      ],
      "stateMutability": "view",
      "type": "function",
      "constant": true
    }
  ],
  "bytecode": "0x60806040523480156200001157600080fd5b506040518060400160405280601381526020017f436172626f6e2043726564697420546f6b656e000000000000000000000000008152506040518060400160405280600381526020016210d0d560ea1b815250816000908162000075919062000132565b50600162000084828262000132565b505050620001fe565b634e487b7160e01b600052604160045260246000fd5b600181811c90821680620000b857607f821691505b602082108103620000d957634e487b7160e01b600052602260045260246000fd5b50919050565b601f8211156200012d57600081815260208120601f850160051c81016020861015620001085750805b601f850160051c820191505b81811015620001295782815560010162000114565b5050505b505050565b81516001600160401b038111156200014e576200014e6200008d565b62000166816200015f8454620000a3565b84620000df565b602080601f8311600181146200019e5760008415620001855750858301515b600019600386901b1c1916600185901b17855562000129565b600085815260208120601f198616915b82811015620001cf57888601518255948401946001909101908401620001ae565b5085821015620001ee5787850151600019600388901b60f8161c191681555b5050505050600190811b01905550565b611cef806200020e6000396000f3fe608060405234801561001057600080fd5b50600436106101575760003560e01c80636575b71f116100c3578063b96af06e1161007c578063b96af06e14610304578063c87b56dd14610317578063d21db5a21461032a578063d9c1d80014610353578063e985e9c514610373578063f85aafbd1461038657600080fd5b80636575b71f1461028257806370a08231146102a257806395d89b41146102c3578063a22cb465146102cb578063a2db3e73146102de578063b88d4fde146102f157600080fd5b806323b872dd1161011557806323b872dd146101ff57806324f905691461021257806342842e0e146102255780635a7dd27c1461023857806360c634b21461025c5780636352211e1461026f57600080fd5b8062923f9e1461015c57806301ffc9a71461018457806306fdde0314610197578063081812fc146101ac578063095ea7b3146101d7578063162094c4146101ec575b600080fd5b61016f61016a366004611595565b610399565b60405190151581526020015b60405180910390f35b61016f6101923660046115c4565b6103b2565b61019f6103bd565b60405161017b919061162e565b6101bf6101ba366004611595565b61044f565b6040516001600160a01b03909116815260200161017b565b6101ea6101e536600461165d565b610476565b005b6101ea6101fa366004611733565b610590565b6101ea61020d36600461177a565b61061f565b6101ea610220366004611595565b610650565b6101ea61023336600461177a565b6106b1565b61024b610246366004611595565b6106cc565b60405161017b9594939291906117b6565b6101ea61026a366004611595565b610788565b6101bf61027d366004611595565b61092f565b6102956102903660046117ee565b61098f565b60405161017b9190611809565b6102b56102b03660046117ee565b6109fb565b60405190815260200161017b565b61019f610a81565b6101ea6102d936600461184d565b610a90565b6102b56102ec366004611889565b610a9f565b6101ea6102ff3660046118d9565b610c48565b6102b561031236600461165d565b610c80565b61019f610325366004611595565b610cb1565b6102b56103383660046117ee565b6001600160a01b031660009081526008602052604090205490565b6102b56103613660046117ee565b60086020526000908152604090205481565b61016f610381366004611955565b610d6c565b61024b610394366004611595565b610d9a565b600080821180156103ac57506006548211155b92915050565b60006103ac82610ed8565b6060600080546103cc90611988565b80601f01602080910402602001604051908101604052809291908181526020018280546103f890611988565b80156104455780601f1061041a57610100808354040283529160200191610445565b820191906000526020600020905b81548152906001019060200180831161042857829003601f168201915b5050505050905090565b600061045a82610f28565b506000908152600460205260409020546001600160a01b031690565b60006104818261092f565b9050806001600160a01b0316836001600160a01b0316036104f35760405162461bcd60e51b815260206004820152602160248201527f4552433732313a20617070726f76616c20746f2063757272656e74206f776e656044820152603960f91b60648201526084015b60405180910390fd5b336001600160a01b038216148061050f575061050f8133610d6c565b6105815760405162461bcd60e51b815260206004820152603d60248201527f4552433732313a20617070726f76652063616c6c6572206973206e6f7420746f60448201527f6b656e206f776e6572206f7220617070726f76656420666f7220616c6c00000060648201526084016104ea565b61058b8383610f8a565b505050565b61059982610399565b6105b55760405162461bcd60e51b81526004016104ea906119c2565b336105bf8361092f565b6001600160a01b0316146106075760405162461bcd60e51b815260206004820152600f60248201526e2737ba103a37b5b2b71037bbb732b960891b60448201526064016104ea565b6000828152600a6020526040902061058b8282611a3d565b6106293382610ff8565b6106455760405162461bcd60e51b81526004016104ea90611afd565b61058b838383611057565b336000908152600860205260408120805483929061066f908490611b60565b90915550506040805182815242602082015233917f6526e60313b0fa46e421001e3ef68b2129060948b48ded1fcdabf72bb64bd013910160405180910390a250565b61058b83838360405180602001604052806000815250610c48565b600760205260009081526040902080546001820180549192916106ee90611988565b80601f016020809104026020016040519081016040528092919081815260200182805461071a90611988565b80156107675780601f1061073c57610100808354040283529160200191610767565b820191906000526020600020905b81548152906001019060200180831161074a57829003601f168201915b50505050600283015460038401546004909401549293909290915060ff1685565b61079181610399565b6107ad5760405162461bcd60e51b81526004016104ea906119c2565b336107b78261092f565b6001600160a01b0316146107ff5760405162461bcd60e51b815260206004820152600f60248201526e2737ba103a37b5b2b71037bbb732b960891b60448201526064016104ea565b60008181526007602052604090206004015460ff166108545760405162461bcd60e51b8152602060048201526011602482015270437265646974206e6f742061637469766560781b60448201526064016104ea565b60008181526007602090815260408083208054338552600890935292205410156108c05760405162461bcd60e51b815260206004820181905260248201527f496e73756666696369656e7420656d697373696f6e7320746f206f666673657460448201526064016104ea565b805433600090815260086020526040812080549091906108e1908490611b73565b909155505060048101805460ff191690558054604051908152829033907f434737f478cd76e5221d6e4da15fdff9b2aa22a13b906ac07b2c24993e86bb049060200160405180910390a35050565b6000818152600260205260408120546001600160a01b0316806103ac5760405162461bcd60e51b8152602060048201526018602482015277115490cdcc8c4e881a5b9d985b1a59081d1bdad95b88125160421b60448201526064016104ea565b6001600160a01b0381166000908152600960209081526040918290208054835181840281018401909452808452606093928301828280156109ef57602002820191906000526020600020905b8154815260200190600101908083116109db575b50505050509050919050565b60006001600160a01b038216610a655760405162461bcd60e51b815260206004820152602960248201527f4552433732313a2061646472657373207a65726f206973206e6f7420612076616044820152683634b21037bbb732b960b91b60648201526084016104ea565b506001600160a01b031660009081526003602052604090205490565b6060600180546103cc90611988565b610a9b3383836111bb565b5050565b6000808411610af05760405162461bcd60e51b815260206004820152601760248201527f416d6f756e74206d75737420626520706f73697469766500000000000000000060448201526064016104ea565b6000835111610b335760405162461bcd60e51b815260206004820152600f60248201526e14dbdd5c98d9481c995c5d5a5c9959608a1b60448201526064016104ea565b60068054906000610b4383611b86565b90915550506006546040805160a081018252868152602080820187815242838501526060830187905260016080840181905260008681526007909352939091208251815590519192839290820190610b9b9082611a3d565b506040828101516002830155606083015160038301556080909201516004909101805460ff1916911515919091179055336000818152600960209081529281208054600181018255908252929020909101839055610bf99083611289565b336001600160a01b0316827f29063e99ffdbcba242199a1564865e33243c485d41fe1dde1b7fbde56707265b888888604051610c3793929190611b9f565b60405180910390a350949350505050565b610c523383610ff8565b610c6e5760405162461bcd60e51b81526004016104ea90611afd565b610c7a848484846112a3565b50505050565b60096020528160005260406000208181548110610c9c57600080fd5b90600052602060002001600091509150505481565b6060610cbc82610399565b610cd85760405162461bcd60e51b81526004016104ea906119c2565b6000828152600a602052604090208054610cf190611988565b80601f0160208091040260200160405190810160405280929190818152602001828054610d1d90611988565b80156109ef5780601f10610d3f576101008083540402835291602001916109ef565b820191906000526020600020905b815481529060010190602001808311610d4d5750939695505050505050565b6001600160a01b03918216600090815260056020908152604080832093909416825291909152205460ff1690565b600060606000806000610dac86610399565b610dc85760405162461bcd60e51b81526004016104ea906119c2565b6000600760008881526020019081526020016000206040518060a001604052908160008201548152602001600182018054610e0290611988565b80601f0160208091040260200160405190810160405280929190818152602001828054610e2e90611988565b8015610e7b5780601f10610e5057610100808354040283529160200191610e7b565b820191906000526020600020905b815481529060010190602001808311610e5e57829003601f168201915b50505091835250506002820154602080830191909152600383015460408084019190915260049093015460ff1615156060928301528351908401519284015191840151608090940151909b929a5090985091965090945092505050565b60006001600160e01b031982166380ac58cd60e01b1480610f0957506001600160e01b03198216635b5e139f60e01b145b806103ac57506301ffc9a760e01b6001600160e01b03198316146103ac565b6000818152600260205260409020546001600160a01b0316610f875760405162461bcd60e51b8152602060048201526018602482015277115490cdcc8c4e881a5b9d985b1a59081d1bdad95b88125160421b60448201526064016104ea565b50565b600081815260046020526040902080546001600160a01b0319166001600160a01b0384169081179091558190610fbf8261092f565b6001600160a01b03167f8c5be1e5ebec7d5bd14f71427d1e84f3dd0314c0f7b2291e5b200ac8c7c3b92560405160405180910390a45050565b6000806110048361092f565b9050806001600160a01b0316846001600160a01b0316148061102b575061102b8185610d6c565b8061104f5750836001600160a01b03166110448461044f565b6001600160a01b0316145b949350505050565b826001600160a01b031661106a8261092f565b6001600160a01b0316146110905760405162461bcd60e51b81526004016104ea90611bc8565b6001600160a01b0382166110f25760405162461bcd60e51b8152602060048201526024808201527f4552433732313a207472616e7366657220746f20746865207a65726f206164646044820152637265737360e01b60648201526084016104ea565b826001600160a01b03166111058261092f565b6001600160a01b03161461112b5760405162461bcd60e51b81526004016104ea90611bc8565b600081815260046020908152604080832080546001600160a01b03199081169091556001600160a01b0387811680865260038552838620805460001901905590871680865283862080546001019055868652600290945282852080549092168417909155905184937fddf252ad1be2c89b69c2b068fc378daa952ba7f163c4a11628f55a4df523b3ef91a4505050565b816001600160a01b0316836001600160a01b03160361121c5760405162461bcd60e51b815260206004820152601960248201527f4552433732313a20617070726f766520746f2063616c6c65720000000000000060448201526064016104ea565b6001600160a01b03838116600081815260056020908152604080832094871680845294825291829020805460ff191686151590811790915591519182527f17307eab39ab6107e8899845ad3d59bd9653f200f220920489ca2b5937696c31910160405180910390a3505050565b610a9b8282604051806020016040528060008152506112d6565b6112ae848484611057565b6112ba84848484611309565b610c7a5760405162461bcd60e51b81526004016104ea90611c0d565b6112e0838361140a565b6112ed6000848484611309565b61058b5760405162461bcd60e51b81526004016104ea90611c0d565b60006001600160a01b0384163b156113ff57604051630a85bd0160e11b81526001600160a01b0385169063150b7a029061134d903390899088908890600401611c5f565b6020604051808303816000875af1925050508015611388575060408051601f3d908101601f1916820190925261138591810190611c9c565b60015b6113e5573d8080156113b6576040519150601f19603f3d011682016040523d82523d6000602084013e6113bb565b606091505b5080516000036113dd5760405162461bcd60e51b81526004016104ea90611c0d565b805181602001fd5b6001600160e01b031916630a85bd0160e11b14905061104f565b506001949350505050565b6001600160a01b0382166114605760405162461bcd60e51b815260206004820181905260248201527f4552433732313a206d696e7420746f20746865207a65726f206164647265737360448201526064016104ea565b6000818152600260205260409020546001600160a01b0316156114c55760405162461bcd60e51b815260206004820152601c60248201527f4552433732313a20746f6b656e20616c7265616479206d696e7465640000000060448201526064016104ea565b6000818152600260205260409020546001600160a01b03161561152a5760405162461bcd60e51b815260206004820152601c60248201527f4552433732313a20746f6b656e20616c7265616479206d696e7465640000000060448201526064016104ea565b6001600160a01b038216600081815260036020908152604080832080546001019055848352600290915280822080546001600160a01b0319168417905551839291907fddf252ad1be2c89b69c2b068fc378daa952ba7f163c4a11628f55a4df523b3ef908290a45050565b6000602082840312156115a757600080fd5b5035919050565b6001600160e01b031981168114610f8757600080fd5b6000602082840312156115d657600080fd5b81356115e1816115ae565b9392505050565b6000815180845260005b8181101561160e576020818501810151868301820152016115f2565b506000602082860101526020601f19601f83011685010191505092915050565b6020815260006115e160208301846115e8565b80356001600160a01b038116811461165857600080fd5b919050565b6000806040838503121561167057600080fd5b61167983611641565b946020939093013593505050565b634e487b7160e01b600052604160045260246000fd5b600067ffffffffffffffff808411156116b8576116b8611687565b604051601f8501601f19908116603f011681019082821181831017156116e0576116e0611687565b816040528093508581528686860111156116f957600080fd5b858560208301376000602087830101525050509392505050565b600082601f83011261172457600080fd5b6115e18383356020850161169d565b6000806040838503121561174657600080fd5b82359150602083013567ffffffffffffffff81111561176457600080fd5b61177085828601611713565b9150509250929050565b60008060006060848603121561178f57600080fd5b61179884611641565b92506117a660208501611641565b9150604084013590509250925092565b85815260a0602082015260006117cf60a08301876115e8565b6040830195909552506060810192909252151560809091015292915050565b60006020828403121561180057600080fd5b6115e182611641565b6020808252825182820181905260009190848201906040850190845b8181101561184157835183529284019291840191600101611825565b50909695505050505050565b6000806040838503121561186057600080fd5b61186983611641565b91506020830135801515811461187e57600080fd5b809150509250929050565b60008060006060848603121561189e57600080fd5b83359250602084013567ffffffffffffffff8111156118bc57600080fd5b6118c886828701611713565b925050604084013590509250925092565b600080600080608085870312156118ef57600080fd5b6118f885611641565b935061190660208601611641565b925060408501359150606085013567ffffffffffffffff81111561192957600080fd5b8501601f8101871361193a57600080fd5b6119498782356020840161169d565b91505092959194509250565b6000806040838503121561196857600080fd5b61197183611641565b915061197f60208401611641565b90509250929050565b600181811c9082168061199c57607f821691505b6020821081036119bc57634e487b7160e01b600052602260045260246000fd5b50919050565b602080825260139082015272151bdad95b88191bd95cdb89dd08195e1a5cdd606a1b604082015260600190565b601f82111561058b57600081815260208120601f850160051c81016020861015611a165750805b601f850160051c820191505b81811015611a3557828155600101611a22565b505050505050565b815167ffffffffffffffff811115611a5757611a57611687565b611a6b81611a658454611988565b846119ef565b602080601f831160018114611aa05760008415611a885750858301515b600019600386901b1c1916600185901b178555611a35565b600085815260208120601f198616915b82811015611acf57888601518255948401946001909101908401611ab0565b5085821015611aed5787850151600019600388901b60f8161c191681555b5050505050600190811b01905550565b6020808252602d908201527f4552433732313a2063616c6c6572206973206e6f7420746f6b656e206f776e6560408201526c1c881bdc88185c1c1c9bdd9959609a1b606082015260800190565b634e487b7160e01b600052601160045260246000fd5b808201808211156103ac576103ac611b4a565b818103818111156103ac576103ac611b4a565b600060018201611b9857611b98611b4a565b5060010190565b838152606060208201526000611bb860608301856115e8565b9050826040830152949350505050565b60208082526025908201527f4552433732313a207472616e736665722066726f6d20696e636f72726563742060408201526437bbb732b960d91b606082015260800190565b60208082526032908201527f4552433732313a207472616e7366657220746f206e6f6e20455243373231526560408201527131b2b4bb32b91034b6b83632b6b2b73a32b960711b606082015260800190565b6001600160a01b0385811682528416602082015260408101839052608060608201819052600090611c92908301846115e8565b9695505050505050565b600060208284031215611cae57600080fd5b81516115e1816115ae56fea2646970667358221220693f3226a744ad9fc9bc280bbcc953f37e38e406036d7c33b883db8636f0fa1664736f6c63430008140033",
  "immutableReferences": {},
  "source": "// SPDX-License-Identifier: MIT\r\npragma solidity ^0.8.19;\r\n\r\nimport \"@openzeppelin/contracts/token/ERC721/ERC721.sol\";\r\nimport \"@openzeppelin/contracts/access/Ownable.sol\";\r\n\r\ncontract CarbonCreditToken is ERC721 {\r\n    uint256 private _tokenIds;\r\n\r\n    struct CarbonCredit {\r\n        uint256 amount;          // CO2 offset in tons\r\n        string source;           // Source of offset (e.g., \"Solar Project A\")\r\n        uint256 timestamp;       // Creation timestamp\r\n        uint256 emissionData;    // Simulated IoT emission data\r\n        bool isActive;           // Whether credit is active/valid\r\n    }\r\n\r\n    // Mappings\r\n    mapping(uint256 => CarbonCredit) public carbonCredits;\r\n    mapping(address => uint256) public companyEmissions;\r\n    mapping(address => uint256[]) public companyTokens;\r\n    mapping(uint256 => string) private _tokenURIs;\r\n\r\n    // Events\r\n    event CreditMinted(\r\n        uint256 indexed tokenId,\r\n        address indexed company,\r\n        uint256 amount,\r\n        string source,\r\n        uint256 emissionData\r\n    );\r\n\r\n    event EmissionRecorded(\r\n        address indexed company,\r\n        uint256 emissionAmount,\r\n        uint256 timestamp\r\n    );\r\n\r\n    event CreditOffset(\r\n        address indexed company,\r\n        uint256 indexed tokenId,\r\n        uint256 amount\r\n    );\r\n\r\n    constructor() ERC721(\"Carbon Credit Token\", \"CCT\") {}\r\n\r\n    function recordEmission(uint256 emissionAmount) public {\r\n        companyEmissions[msg.sender] += emissionAmount;\r\n        emit EmissionRecorded(msg.sender, emissionAmount, block.timestamp);\r\n    }\r\n\r\n    function tokenExists(uint256 tokenId) public view returns (bool) {\r\n        return tokenId > 0 && tokenId <= _tokenIds;\r\n    }\r\n\r\n    function mintCredit(\r\n        uint256 amount,\r\n        string memory source,\r\n        uint256 emissionData\r\n    ) public returns (uint256) {\r\n        require(amount > 0, \"Amount must be positive\");\r\n        require(bytes(source).length > 0, \"Source required\");\r\n\r\n        _tokenIds++;\r\n        uint256 newTokenId = _tokenIds;\r\n\r\n        CarbonCredit memory newCredit = CarbonCredit({\r\n            amount: amount,\r\n            source: source,\r\n            timestamp: block.timestamp,\r\n            emissionData: emissionData,\r\n            isActive: true\r\n        });\r\n\r\n        carbonCredits[newTokenId] = newCredit;\r\n        companyTokens[msg.sender].push(newTokenId);\r\n\r\n        _safeMint(msg.sender, newTokenId);\r\n\r\n        emit CreditMinted(newTokenId, msg.sender, amount, source, emissionData);\r\n\r\n        return newTokenId;\r\n    }\r\n\r\n    function offsetEmissions(uint256 tokenId) public {\r\n        require(tokenExists(tokenId), \"Token doesn't exist\");\r\n        require(ownerOf(tokenId) == msg.sender, \"Not token owner\");\r\n        require(carbonCredits[tokenId].isActive, \"Credit not active\");\r\n\r\n        CarbonCredit storage credit = carbonCredits[tokenId];\r\n        require(companyEmissions[msg.sender] >= credit.amount, \"Insufficient emissions to offset\");\r\n\r\n        companyEmissions[msg.sender] -= credit.amount;\r\n        credit.isActive = false;\r\n\r\n        emit CreditOffset(msg.sender, tokenId, credit.amount);\r\n    }\r\n\r\n    function getCompanyTokens(address company) public view returns (uint256[] memory) {\r\n        return companyTokens[company];\r\n    }\r\n\r\n    function getCreditDetails(uint256 tokenId) public view returns (\r\n        uint256 amount,\r\n        string memory source,\r\n        uint256 timestamp,\r\n        uint256 emissionData,\r\n        bool isActive\r\n    ) {\r\n        require(tokenExists(tokenId), \"Token doesn't exist\");\r\n        CarbonCredit memory credit = carbonCredits[tokenId];\r\n        return (\r\n            credit.amount,\r\n            credit.source,\r\n            credit.timestamp,\r\n            credit.emissionData,\r\n            credit.isActive\r\n        );\r\n    }\r\n\r\n    function getEmissions(address company) public view returns (uint256) {\r\n        return companyEmissions[company];\r\n    }\r\n\r\n    function setTokenURI(uint256 tokenId, string memory _tokenURI) public {\r\n        require(tokenExists(tokenId), \"Token doesn't exist\");\r\n        require(ownerOf(tokenId) == msg.sender, \"Not token owner\");\r\n        _tokenURIs[tokenId] = _tokenURI;\r\n    }\r\n\r\n    function tokenURI(uint256 tokenId) public view virtual override returns (string memory) {\r\n        require(tokenExists(tokenId), \"Token doesn't exist\");\r\n        return _tokenURIs[tokenId];\r\n    }\r\n\r\n    function supportsInterface(bytes4 interfaceId) public view virtual override(ERC721) returns (bool) {\r\n        return super.supportsInterface(interfaceId);\r\n    }\r\n}\r\n",
  "sourcePath": "D:\\College SEM 7\\Blockchain Lab\\Project\\green-energy-tracking\\contracts\\CarbonCreditToken.sol",
  "compiler": {
    "name": "solc",
    "version": "0.8.20+commit.a1b79de6.Emscripten.clang"
  },
  "schemaVersion": "3.4.16",
  "updatedAt": "2024-10-27T14:30:24.554Z",
  "networkType": "ethereum",
  "devdoc": {
    "events": {
      "Approval(address,address,uint256)": {
        "details": "Emitted when `owner` enables `approved` to manage the `tokenId` token."
      },
      "ApprovalForAll(address,address,bool)": {
        "details": "Emitted when `owner` enables or disables (`approved`) `operator` to manage all of its assets."
      },
      "Transfer(address,address,uint256)": {
        "details": "Emitted when `tokenId` token is transferred from `from` to `to`."
      }
    },
    "kind": "dev",
    "methods": {
      "approve(address,uint256)": {
        "details": "See {IERC721-approve}."
      },
      "balanceOf(address)": {
        "details": "See {IERC721-balanceOf}."
      },
      "getApproved(uint256)": {
        "details": "See {IERC721-getApproved}."
      },
      "isApprovedForAll(address,address)": {
        "details": "See {IERC721-isApprovedForAll}."
      },
      "name()": {
        "details": "See {IERC721Metadata-name}."
      },
      "ownerOf(uint256)": {
        "details": "See {IERC721-ownerOf}."
      },
      "safeTransferFrom(address,address,uint256)": {
        "details": "See {IERC721-safeTransferFrom}."
      },
      "safeTransferFrom(address,address,uint256,bytes)": {
        "details": "See {IERC721-safeTransferFrom}."
      },
      "setApprovalForAll(address,bool)": {
        "details": "See {IERC721-setApprovalForAll}."
      },
      "supportsInterface(bytes4)": {
        "details": "See {IERC165-supportsInterface}."
      },
      "symbol()": {
        "details": "See {IERC721Metadata-symbol}."
      },
      "tokenURI(uint256)": {
        "details": "See {IERC721Metadata-tokenURI}."
      },
      "transferFrom(address,address,uint256)": {
        "details": "See {IERC721-transferFrom}."
      }
    },
    "version": 1
  },
  "userdoc": {
    "kind": "user",
    "methods": {},
    "version": 1
  }
}